{
  "_format": "hh-sol-artifact-1",
  "contractName": "LoanContract",
  "sourceName": "contracts/LoanContract.sol",
  "abi": [
    {
      "inputs": [
        {
          "internalType": "address",
          "name": "_borrower",
          "type": "address"
        },
        {
          "internalType": "uint256",
          "name": "_amount",
          "type": "uint256"
        }
      ],
      "stateMutability": "nonpayable",
      "type": "constructor"
    },
    {
      "inputs": [],
      "name": "amount",
      "outputs": [
        {
          "internalType": "uint256",
          "name": "",
          "type": "uint256"
        }
      ],
      "stateMutability": "view",
      "type": "function"
    },
    {
      "inputs": [],
      "name": "approveLoan",
      "outputs": [],
      "stateMutability": "nonpayable",
      "type": "function"
    },
    {
      "inputs": [],
      "name": "approved",
      "outputs": [
        {
          "internalType": "bool",
          "name": "",
          "type": "bool"
        }
      ],
      "stateMutability": "view",
      "type": "function"
    },
    {
      "inputs": [],
      "name": "borrower",
      "outputs": [
        {
          "internalType": "address",
          "name": "",
          "type": "address"
        }
      ],
      "stateMutability": "view",
      "type": "function"
    },
    {
      "inputs": [],
      "name": "disburseLoan",
      "outputs": [],
      "stateMutability": "payable",
      "type": "function"
    },
    {
      "inputs": [],
      "name": "lender",
      "outputs": [
        {
          "internalType": "address",
          "name": "",
          "type": "address"
        }
      ],
      "stateMutability": "view",
      "type": "function"
    },
    {
      "inputs": [],
      "name": "repaid",
      "outputs": [
        {
          "internalType": "bool",
          "name": "",
          "type": "bool"
        }
      ],
      "stateMutability": "view",
      "type": "function"
    },
    {
      "inputs": [],
      "name": "repayLoan",
      "outputs": [],
      "stateMutability": "payable",
      "type": "function"
    }
  ],
  "bytecode": "0x608060405234801561001057600080fd5b5060405161095338038061095383398181016040528101906100329190610190565b336000806101000a81548173ffffffffffffffffffffffffffffffffffffffff021916908373ffffffffffffffffffffffffffffffffffffffff16021790555081600160006101000a81548173ffffffffffffffffffffffffffffffffffffffff021916908373ffffffffffffffffffffffffffffffffffffffff160217905550806002819055506000600360006101000a81548160ff0219169083151502179055506000600360016101000a81548160ff02191690831515021790555050506101d0565b600080fd5b600073ffffffffffffffffffffffffffffffffffffffff82169050919050565b6000610127826100fc565b9050919050565b6101378161011c565b811461014257600080fd5b50565b6000815190506101548161012e565b92915050565b6000819050919050565b61016d8161015a565b811461017857600080fd5b50565b60008151905061018a81610164565b92915050565b600080604083850312156101a7576101a66100f7565b5b60006101b585828601610145565b92505060206101c68582860161017b565b9150509250929050565b610774806101df6000396000f3fe60806040526004361061007b5760003560e01c8063bcead63e1161004e578063bcead63e1461010b578063f284d07c14610136578063f966ade71461014d578063fbb27dce146101575761007b565b8063188874bd1461008057806319d40b081461008a5780637df1f1b9146100b5578063aa8c217c146100e0575b600080fd5b610088610182565b005b34801561009657600080fd5b5061009f61023e565b6040516100ac91906104d2565b60405180910390f35b3480156100c157600080fd5b506100ca610251565b6040516100d7919061052e565b60405180910390f35b3480156100ec57600080fd5b506100f5610277565b6040516101029190610562565b60405180910390f35b34801561011757600080fd5b5061012061027d565b60405161012d919061052e565b60405180910390f35b34801561014257600080fd5b5061014b6102a1565b005b61015561034c565b005b34801561016357600080fd5b5061016c6104a4565b60405161017991906104d2565b60405180910390f35b600360009054906101000a900460ff166101d1576040517f08c379a00000000000000000000000000000000000000000000000000000000081526004016101c8906105da565b60405180910390fd5b600160009054906101000a900473ffffffffffffffffffffffffffffffffffffffff1673ffffffffffffffffffffffffffffffffffffffff166108fc6002549081150290604051600060405180830381858888f1935050505015801561023b573d6000803e3d6000fd5b50565b600360009054906101000a900460ff1681565b600160009054906101000a900473ffffffffffffffffffffffffffffffffffffffff1681565b60025481565b60008054906101000a900473ffffffffffffffffffffffffffffffffffffffff1681565b60008054906101000a900473ffffffffffffffffffffffffffffffffffffffff1673ffffffffffffffffffffffffffffffffffffffff163373ffffffffffffffffffffffffffffffffffffffff161461032f576040517f08c379a000000000000000000000000000000000000000000000000000000000815260040161032690610646565b60405180910390fd5b6001600360006101000a81548160ff021916908315150217905550565b600160009054906101000a900473ffffffffffffffffffffffffffffffffffffffff1673ffffffffffffffffffffffffffffffffffffffff163373ffffffffffffffffffffffffffffffffffffffff16146103dc576040517f08c379a00000000000000000000000000000000000000000000000000000000081526004016103d3906106b2565b60405180910390fd5b6002543414610420576040517f08c379a00000000000000000000000000000000000000000000000000000000081526004016104179061071e565b60405180910390fd5b60008054906101000a900473ffffffffffffffffffffffffffffffffffffffff1673ffffffffffffffffffffffffffffffffffffffff166108fc349081150290604051600060405180830381858888f19350505050158015610486573d6000803e3d6000fd5b506001600360016101000a81548160ff021916908315150217905550565b600360019054906101000a900460ff1681565b60008115159050919050565b6104cc816104b7565b82525050565b60006020820190506104e760008301846104c3565b92915050565b600073ffffffffffffffffffffffffffffffffffffffff82169050919050565b6000610518826104ed565b9050919050565b6105288161050d565b82525050565b6000602082019050610543600083018461051f565b92915050565b6000819050919050565b61055c81610549565b82525050565b60006020820190506105776000830184610553565b92915050565b600082825260208201905092915050565b7f4c6f616e206e6f7420617070726f766564000000000000000000000000000000600082015250565b60006105c460118361057d565b91506105cf8261058e565b602082019050919050565b600060208201905081810360008301526105f3816105b7565b9050919050565b7f4f6e6c79206c656e6465722063616e20617070726f7665000000000000000000600082015250565b600061063060178361057d565b915061063b826105fa565b602082019050919050565b6000602082019050818103600083015261065f81610623565b9050919050565b7f4f6e6c7920626f72726f7765722063616e207265706179000000000000000000600082015250565b600061069c60178361057d565b91506106a782610666565b602082019050919050565b600060208201905081810360008301526106cb8161068f565b9050919050565b7f496e636f72726563742072657061796d656e7420616d6f756e74000000000000600082015250565b6000610708601a8361057d565b9150610713826106d2565b602082019050919050565b60006020820190508181036000830152610737816106fb565b905091905056fea2646970667358221220d0aa073befed9d67e6c6e9c1b761efa7179750bcdfaa8cbda87de7a8ef82ee9b64736f6c63430008120033",
  "linkReferences": {},
  "deployedLinkReferences": {}
}